:020000040800F2
:1000000078050020D90100084F1400088B13000860
:100010004D1400082D0400080D1600080000000013
:100020000000000000000000000000007314000841
:100030002F04000800000000711400087514000867
:10004000F3010008F3010008F3010008F3010008C0
:10005000F3010008F3010008F3010008F3010008B0
:10006000F3010008F3010008F3010008F3010008A0
:10007000F3010008F3010008F3010008F301000890
:10008000F3010008F3010008F3010008F301000880
:10009000F3010008F3010008F3010008F301000870
:1000A000F301000841150008F3010008F3010008FE
:1000B000F3010008F3010008F3010008F301000850
:1000C000F3010008F3010008F3010008F301000840
:1000D000F3010008F3010008F3010008F301000830
:1000E000F3010008F3010008F3010008F301000820
:1000F000F3010008F3010008F3010008F301000810
:10010000F3010008F3010008F3010008F3010008FF
:10011000F3010008F3010008F3010008F3010008EF
:10012000F3010008F3010008F3010008F3010008DF
:10013000F30100080000000000000000F3010008C7
:10014000F3010008F3010008F3010008F3010008BF
:10015000F3010008F3010008F3010008F3010008AF
:10016000F3010008F3010008F3010008F30100089F
:10017000F3010008F3010008F3010008000000008B
:1001800000000000F3010008000000000000000073
:10019000F30100080000000000000000F301000867
:1001A000000000000000000000000000F301000853
:1001B000F3010008F3010008F3010008F30100084F
:1001C000F3010008DFF80CD000F08CF8004800477D
:1001D0002D1600087805002006488047064800478D
:1001E000FEE7FEE7FEE7FEE7FEE7FEE7FEE7FEE7E7
:1001F000FEE7FEE7ED140008C50100082DE9F05FF9
:100200000546002092469B46884606468146402485
:100210001BE0284641464746224600F053F8534625
:100220005A46C01A914110D311461846224600F092
:100230003AF82D1A67EB01084F46224601200021AB
:1002400000F031F817EB00094E41201EA4F1010423
:10025000DFDC484631462A464346BDE8F09F40EA87
:1002600001039B0703D009E008C9121F08C0042A34
:10027000FAD203E011F8013B00F8013B521EF9D21B
:100280007047D2B201E000F8012B491EFBD2704743
:100290000022F6E710B513460A4604461946FFF752
:1002A000F0FF204610BD202A04DB203A00FA02F1BC
:1002B000002070479140C2F1200320FA03F3194354
:1002C00090407047202A04DB203A21FA02F00021F6
:1002D000704721FA02F3D040C2F120029140084356
:1002E00019467047064C074D06E0E06840F00103F0
:1002F00094E8070098471034AC42F6D3FFF766FF46
:10030000B8170008D8170008454910B54A6822F404
:1003100040324A604A6843681A434A6001684A6842
:1003200022F480724A6001684A68036942EA032243
:100330004A6001684A6822F040724A6001684A686F
:1003400083681A434A6001688A6822F400628A60FE
:1003500001688A68C3681A438A60816A6FF07062B4
:10036000D14201688A6822F070628A6001688A68F6
:100370000CD0836A1A438A6001688A6822F040526E
:100380008A6001688A68C36A1A4301E022F0405219
:100390008A6001688A6822F002028A6001688A68BD
:1003A000836942EA43028A60016A002901684A6857
:1003B0000FD042F400624A6001684A6822F4604249
:1003C0004A6001684A68174C436A04EB43331A4396
:1003D00001E022F400624A600168CA6A22F47002F5
:1003E000CA620168CA6A838B0F4C04EB03531A4339
:1003F000CA6201688A6822F400728A6001688A68A9
:10040000036B42EA43228A6001688A6822F48062B0
:100410008A6001688A68406942EA8020886010BD6D
:100420000023014000E0FFFF0000F0FFFEE77047FF
:1004300078B50024009490F83C20012A19D00122BC
:1004400080F83C200A6807230568092A13D9EE685A
:100450000A3A02EB420293409E43EE600A788B68B0
:100460000A3A02EB420293400268D5682B43D360FC
:1004700010E0022078BD2E6902EB420293409E43B9
:100480002E610A788B6802EB42029340026815697C
:100490002B4313614A681F23072A13D205686E6B2A
:1004A000521E02EB820293409E436E630B790A88D0
:1004B0005B1E92B203EB83039A4003685D6B2A4391
:1004C0005A6327E005680D2A12D22E6BD21F02EB69
:1004D000820293409E432E630B790A88DB1F92B2FF
:1004E00003EB83039A4003681D6B2A431A6311E0F0
:1004F000EE6A0D3A02EB820293409E43EE620B7964
:100500000A880D3B92B203EB83039A400368DD6ACD
:100510002A43DA62174B0568154A9D4206D10D68D9
:10052000122D03D1556845F48005556005689D423C
:1005300019D1114D0B68AB4201D0112B13D1536867
:1005400043F4000353600968A9420CD10B490C4ADB
:100550000968B1FBF2F101EB8101490000E0491E9D
:1005600000910029FBD180F83C40002078BD0000BC
:10057000002301400020014012000010DC00002098
:1005800040420F000068C06C704770B504004FF027
:10059000000503D0206C002610B107E0012070BDDB
:1005A000666484F83C60204600F01AF8206CC006AF
:1005B00010D4206C20F4885040F0020020642046C3
:1005C000FFF7A2FE6664206C20F0020040F00100FC
:1005D000206400E0012584F83C60284670BD0000DE
:1005E00010B586B0044614216846FFF751FE114944
:1005F000206888421CD110480021026842F4007231
:100600000260006800F4007005900B48143802681E
:1006100042F001020260006800F0010005908020B5
:1006200000900320CDE901016946044800F062F919
:1006300006B010BD002101404438024000000240D5
:100640002DE9F041044600680D4681684FF000072F
:1006500049050BD58068C00508D5206C40F0200006
:10066000206484F83C700120BDE8F08100F01AFAA3
:1006700006460FE0681C0DD025B100F013FA801B70
:10068000A84207D9206C40F00400206484F83C7034
:100690000320E9E7206800688007EBD521686FF048
:1006A00012000860206C40F40070206420688168AB
:1006B00011F0405F13D1A16989B9C16A11F4700FBB
:1006C00002D0806840050AD4206C20F48070206439
:1006D000206CC00403D4206C40F001002064002092
:1006E000C2E7000018B50021009190F83C20012AD3
:1006F00007D0012280F83C2002689368DB0702D013
:1007000011E0022018BD936843F001039360204A72
:10071000204B1268B2FBF3F202EB420200E0521EE1
:100720000092002AFBD102689368DB072DD0036C8E
:1007300040F20164A34343F48073036453685B0590
:1007400005D5036C23F4005343F480530364036C16
:10075000DB0404D5436C23F00603436400E04164EA
:1007600080F83C100C496FF0220313604968006860
:10077000C90602D00949884207D1816811F0405F5B
:1007800003D1816841F080418160002018BD0000E4
:10079000DC00002040420F00002301400020014007
:1007A00070B54379012B1AD00126467102230371DB
:1007B00005682C6840F6FE7393409C43D1E90031F4
:1007C0000B43934023432B6001680B68C024944083
:1007D000A3430B60067100214171084670BD0220E1
:1007E00070BD70B5040003D02079002510B105E07C
:1007F000012070BD6571204600F008F802202071CC
:10080000256101202071002070BD000010B586B068
:10081000044614216846FFF73BFD114920688842D1
:100820001CD110480021026842F0005202600068AA
:1008300000F0005005900B481038026842F00102A9
:100840000260006800F00100059010200090032075
:10085000CDE901016946044800F04CF806B010BD2E
:1008600000740040403802400000024018B504689F
:1008700000940068104421B11430009003600020FF
:1008800018BD0830F9E730B54279012A16D00122A7
:1008900042710223037103681D6802FA01F42543C3
:1008A0001D60002901680B680AD00C6803F48023DE
:1008B00004F46014B3F5802F0FD015E0022030BD92
:1008C0000C6803F0040304F03804042B0CD1382C1A
:1008D0000AD14B6843F0010305E0B4F5601F03D172
:1008E0004B6843F002034B600271002141710846DE
:1008F00030BD00002DE9F84FDFF874B100224FF051
:1009000001084FF0030A4FF00F090BF1040E00BF6E
:100910000B6808FA02F42340A3426ED14D68022D01
:1009200001D0122D0ED1D50800EB850CDCF820503B
:100930005607F70E09FA07F6B5430E69BE402E4377
:10094000CCF82060066855000F790AFA05FC07F01C
:10095000030726EA0C06AF40374307604E68012EB6
:1009600005D0022E03D0112E01D0122E0ED1866892
:10097000CF6826EA0C06AF40374387604668A64337
:100980000C79C4F30014944034434460C4688E6806
:1009900024EA0C04AE402643C6604C68E40060D5EF
:1009A000344C256845F480452560246822F0030511
:1009B00004F480440094304C2E19D6F8084895076A
:1009C0002F0F09FA07F5AC432C4DA84201D10025A1
:1009D0001FE02B4DA84201D101251AE0294DA84264
:1009E00001D1022515E0284DA84201D1032510E0D0
:1009F000264DA84202D104250BE032E0244DA84246
:100A000001D1052505E0234DA84201D1062500E0CE
:100A10000725BD402543C6F80858DBF800405D4671
:100A20004E689C43F60300D51C432C60DEF8004062
:100A300075464E689C43B60300D51C432C600C4D94
:100A400008352C684E689C43F60200D51C432C6088
:100A5000074D0C352C684E689C43B60200D51C43EC
:100A60002C60521C102AFFF453AFBDE8F88F000031
:100A7000003C014044380240003001400000024088
:100A80000004024000080240000C02400010024036
:100A900000140240001802400AB181617047090445
:100AA000FBE700000148806870470000D00000208C
:100AB000024881680278114481607047D0000020AC
:100AC0000B4810B5016841F400710160016841F400
:100AD00080610160016841F480710160032000F0D1
:100AE0006DF8002000F006F800F024F8002010BD9A
:100AF000003C024070B50D4D04464FF47A712878E1
:100B0000B1FBF0F00A490968B1FBF0F000F0EEFA31
:100B100048B9102C07D200222146501E00F02EF8B2
:100B200000206C6070BD012070BD0000D00000206E
:100B3000DC0000200A4808B5016841F480410160EA
:100B4000006800F4804000900548001F016841F0F3
:100B500080510160006800F08050009008BD0000E6
:100B60004438024000F01F020121914040098000FA
:100B700000F1E020C0F8001170470000F0B40E4B07
:100B80001B680C46C3F30223C3F10705042D00D9EB
:100B90000425191D072901D2002300E0DB1E0126D0
:100BA00006FA05F1491E214099409E40761E1640E6
:100BB0003143F0BC00F04CBC0CED00E0064900F005
:100BC000070208684FF6FF03184040EA0220034A74
:100BD00010430860704700000CED00E00000FA05CB
:100BE0002DE9F0470E46050065D0DFF81481D8F8EE
:100BF0000000F7B200F00F00B04207D288F8007092
:100C0000D8F8000000F00F00B04254D128683D4CE5
:100C1000810712D5400703D5206840F4E0502060DA
:100C20002878000703D5206840F4604020602068E1
:100C3000A96820F0F000084320602878C0072DD074
:100C4000304968680839012812D0022813D00328D7
:100C500011D00968890700292DDA216821F00301E4
:100C600001432160FFF71EFF814641F2883A0EE002
:100C700009688903EFE709688901ECE7FFF712FFCC
:100C8000A0EB0901514502D90320BDE8F087206897
:100C9000696800F00C00B0EB810FEFD1D8F80010BC
:100CA000404601F00F01B14207D90770006800F01B
:100CB0000F00B04201D00120E7E72878400705D5B2
:100CC0002068E96820F4E050084320602878000795
:100CD00006D52068296920F4604040EAC100206000
:100CE00000F016F82168084AC1F30311515CC840AE
:100CF000064908600020FFF7FDFE0020C5E7000060
:100D0000003C024008380240A8170008DC00002020
:100D1000224810B5006810F00C02214815D0214976
:100D2000042A11D01D4C241F082A0FD00C2A0CD1E4
:100D30002268236802F03F025B0221D52068C0F3DD
:100D40008810A0FB010120E0084610BD226823683E
:100D500002F03F025B0205D52068C0F38810A0FBBB
:100D6000010104E02168C1F38811A1FB0001002307
:100D7000FFF744FA2168C1F30141491C49000AE028
:100D80002168C1F38811A1FB00010023FFF736FAA7
:100D90002168C1F30271B0FBF1F010BD08380240C8
:100DA0000024F40040787D012DE9F84F0546DFF876
:100DB00028B30078ABF10407C007A7F1040451D0B1
:100DC000DBF800105846C1F3810101290FD00168FA
:100DD000C1F38101022902D13968490207D40068B0
:100DE000C0F38100032809D13868400206D5206885
:100DF000800337D56868002872D033E06868B0F5A2
:100E0000803F10D0B0F5A02F206810D020F48030A3
:100E10002060206820F4802020606868A8B1FFF777
:100E200041FE06460DE0206840F48030F4E740F4CF
:100E300080202060F7E700BFFFF734FE801B6428A6
:100E400078D820688003F7D50CE0FFF72BFE064624
:100E500005E000BFFFF726FE801B6428F0D820685D
:100E60008003F7D42878DFF8749280074FF0000AE7
:100E700046D5DBF80010584611F00C0F0FD0016872
:100E8000C1F38101022902D13968490207D50068FE
:100E9000C0F38100032809D13868400206D42068D5
:100EA000800715D5E86801281AD111E0E868C0B1BB
:100EB0000120C9F80000FFF7F5FD064605E000BF78
:100EC000FFF7F0FD801B0228BAD820688007F7D50D
:100ED0002068296920F0F80040EAC10020600FE096
:100EE000F7E0C9F800A0FFF7DDFD064605E000BF0A
:100EF000FFF7D8FD801B02281CD820688007F7D494
:100F00002878000727D5DFF8D0817548696908F18E
:100F10006C0881B101210160FFF7C4FD064604E0C1
:100F2000FFF7C0FD801B022804D8D8F80000800716
:100F3000F6D510E089E0C0F800A0FFF7B3FD064643
:100F400005E000BFFFF7AEFD801B02287DD8D8F872
:100F500000008007F6D42878400769D55E484FF036
:100F6000000838300068C0000BD45B483830016896
:100F700041F08051016000684FF0010800F080509E
:100F80000090584E3068C00511D4306840F480702D
:100F90003060FFF787FD009006E000BFFFF782FD9D
:100FA0000099401A022850D83068C005F6D54A4E3C
:100FB000A868683601280FD00528306810D020F0C6
:100FC00001003060306820F004003060A868B8B1DB
:100FD000FFF768FD00900FE0306840F00100F4E793
:100FE00040F004003060F7E7FFF75CFD0099411A1C
:100FF00041F28830814264D830688007F4D50EE031
:10100000FFF750FD009007E0FFF74CFD0099411AF3
:1010100041F28830814254D830688007F4D4B8F166
:10102000000F05D02C483830016821F08051016054
:10103000A869A8B3DBF80010C1F38101022948D0E8
:101040000228C9F860A005D000E03AE0FFF72AFDC9
:10105000054639E0FFF726FD064604E0FFF722FDCE
:10106000801B02282DD820688001F7D4F5E90701FC
:101070000843E9681C4A490802EB0141AA6841EAB1
:1010800082110843297C40EA0160297D40EA017011
:1010900038600120C9F86000FFF704FD054606E04E
:1010A00015E000BFFFF7FEFC401B022809D82068AE
:1010B0008001F7D50BE000BFFFF7F4FC401B0228CE
:1010C00002D90320BDE8F88F20688001F4D4002005
:1010D000F8E70120F6E70000083802400000474228
:1010E000800E4742007000400000FFFF10B5401E18
:1010F000B0F1807F01D3012010BD4FF0E02460618A
:101100000F21601700F0A4F90020A06107202061E2
:10111000002010BD7047704710B5040003D094F84C
:10112000390010B107E0012010BD002084F838001C
:10113000204600F00DF8022084F83900211D2068B7
:1011400000F004FA012084F83900002010BD0000EE
:1011500008B500680B49884212D10B48016841F478
:10116000003101600068002200F400300090114658
:101170001920FFF703FDBDE808401920FFF7F2BC76
:1011800008BD000000440140443802400168CA68BC
:1011900042F00102CA600068016841F0010101608B
:1011A00000207047022180F8391001680A6A41F274
:1011B00011131A4207D10A6A9B101A4203D10A6816
:1011C00022F001020A60012180F8391000207047E6
:1011D000704770B50446006801694FF00005C943C7
:1011E000890715D4C168C943890711D4E91E016173
:1011F00001202076206880698007204602D0FFF712
:10120000E7FF04E000F098F8204600F096F8257615
:1012100020680169C943490717D4C168C943490710
:1012200013D46FF0040101610220207620688069E8
:1012300010F4407F204602D0FFF7CAFF04E000F020
:101240007BF8204600F079F8257620680169C943CB
:10125000090716D4C168C943090712D46FF0080101
:101260000161042020762068C0698007204602D0F2
:10127000FFF7AEFF04E000F05FF8204600F05DF8F5
:10128000257620680169C943C90617D4C168C943D6
:10129000C90613D46FF01001016108202076206880
:1012A000C06910F4407F204602D0FFF791FF04E0B0
:1012B00000F042F8204600F040F8257620680169E9
:1012C000C943C90708D1C168C943C90704D1891EE8
:1012D0000161204600F032F820680169C94309061F
:1012E00009D4C168C943090605D46FF080010161C2
:1012F0002046FFF70FFF20680169C943490609D45A
:10130000C168C943490605D46FF040010161204618
:1013100000F03AF820680169C94389060BD4C16816
:10132000C943890607D46FF0200101612046BDE85A
:101330007040FFF7F0BE70BD7047704700680F49FE
:1013400082B0884217D10E49A1F10800028831F815
:101350001210ADF800100188632902D20188491CDF
:1013600000E000210180BDF8003000221146054850
:1013700002B0FFF77BBA02B07047000000440140A2
:1013800008000020280100207047FEE77FB50024F8
:1013900010480094019402940D490394C0E900148C
:1013A0008460046184610C490462C0E90A14012567
:1013B000C460C56145610463FFF7E7F80720CDE924
:1013C0000005694602940348FFF732F87FBD00002C
:1013D00000210140E00000200100000F70B586B040
:1013E00014216846FEF754FF16480024016841F0B6
:1013F00004010160016801F004010591016841F0F8
:10140000010101600068104E00F001004FF48045BA
:101410000590224629463046FFF73EFB6810CDE98D
:101420000004694630460294FFF764FA01200095F3
:10143000CDE90104694630460394FFF75BFA06B034
:1014400070BD00003038024000080240FEE77047DF
:101450000907090E002806DA00F00F0000F1E0206D
:1014600080F8141D704700F1E02080F800147047E8
:1014700070477047FFF71CBB10B594B03421684625
:10148000FEF706FF14210DA8FEF702FF1548002401
:10149000016841F080510160006800F080501290B6
:1014A0001148016821F4404141F480410160006825
:1014B000069400F440401290022000900120039016
:1014C000102004906846FFF76FFC0F20CDE90D0453
:1014D0000F94109400210DA81194FFF781FB14B014
:1014E00010BD000040380240007000401048016804
:1014F00041F4700101600F48016841F00101016091
:101500000C4A00210832116002680B4B1A4002603D
:10151000031D0A4A1A60026822F48022026005480C
:101520000C3001600249580680390860704700009D
:1015300088ED00E000380240FFFFF6FE1030002486
:101540000148FFF746BE00003C010020F0B50268EC
:10155000234B244D244E254F254C4FF0804C984270
:1015600009D0604507D0A84205D0B04203D0B842A8
:1015700001D0A04204D122F0700E4A6842EA0E0265
:1015800098421BD0604519D0A84217D0B04215D060
:10159000B84213D0A04211D0164DA8420ED0164D1D
:1015A000A8420BD0154DA84208D0154DA84205D031
:1015B000144DA84202D0144DA84203D122F4407524
:1015C000CA682A4302608A68C2620A6882629842D4
:1015D00001D0A04201D10969016301214161F0BD3F
:1015E000000001400004004000080040000C0040E2
:1015F0000004014000400140004401400048014017
:1016000000180040001C004000200040FEE702E0FF
:1016100008C8121F08C1002AFAD17047704700207D
:1016200001E001C1121F002AFBD1704788B0FFF70B
:1016300047FAFFF721FFFFF7D1FE4FF000085049AE
:10164000CDF818804D48CDF81C8008604446084607
:10165000FFF7C7F80694002206A949480794FFF748
:101660009FF8474847491430012502C0B52132C0D0
:1016700004601038FFF750FDFFF788FE4048143033
:10168000FFF784FD00213E48FFF7FDF88DF8184074
:101690003B484838FFF726F818223B496846FEF7D2
:1016A000DEFD384F394C6E46283735480A21483818
:1016B000FEF7C6FFF0BB32484838FEF763FF608094
:1016C0002F484838FFF70EF8608840F61C418842E2
:1016D00001D9C4F80480411E092900D26560A0F137
:1016E000C901C72901D202216160A0F25921B1F5D7
:1016F000F97F01D803216160A0F21551632901D25D
:1017000004216160A0F2A561632901D20521616015
:10171000A0F2D171632901D206216160A0F6FD011A
:10172000C72901D207216160A0F68D21632903D268
:10173000082100E012E06160A0F65531C72901D20E
:101740000A216160A0F6E541C72901D20B21616041
:10175000A0F67560632801D20C206060606836F8DE
:10176000101039600028064800F1140002D0FFF77D
:101770000DFD9AE7FFF716FD97E7000000740040A3
:1017800028010020004401409017000800000020BC
:101790000E010401FA00F000E600DC00D200C800EF
:1017A000BE00B400AA00A00000000000000000007D
:1017B0000102030406070809D817000800000020EA
:1017C000E00000000E160008B8180008E000002035
:1017D000980400001E160008000000000000000031
:1017E000000440048004BF04FE043C057805B405F1
:1017F000ED05240659068C06BC06EA0615073C07CB
:10180000600781079E07B807CD07DF07ED07F707D9
:10181000FD07FF07FD07F707ED07DF07CD07B8074F
:101820009E07810760073C071407EA06BC068C0682
:1018300059062406ED05B30578053C05FE04BF04F2
:1018400080044004FF03BF037F0340030103C3027E
:1018500086024B021202DB01A6017301420115014F
:10186000EA00C3009F007E006100470032002000B4
:101870001200080002000000020008001200200010
:101880003200470061007E009F00C300EB0015019D
:1018900043017301A601DB0112024C028702C3025D
:1018A000010340037F03BF0301000000100000009C
:0818B000000000000024F40018
:04000005080001C529
:00000001FF
